:040000003BEF03F0DF
:08000800046ED8CF05F0E0CF33
:1000100006F00001E9CF0CF0EACF07F0E1CF08F0DD
:10002000E2CF09F0D9CF0AF0DACF0BF0F3CF12F01C
:10003000F4CF13F0FACF14F0F5CF15F0F6CF16F099
:10004000F7CF17F000C00EF001C00FF002C010F0A3
:1000500003C011F0F2A830EF00F0F2B208EF01F0A7
:100060009DAA36EF00F09EBAD2EF00F00EC000F06D
:100070000FC001F010C002F011C003F00CC0E9FF86
:1000800007C0EAFF078E08C0E1FF09C0E2FF0AC00F
:10009000D9FF0BC0DAFF12C0F3FF13C0F4FF14C086
:1000A000FAFF15C0F5FF16C0F6FF17C0F7FF0450A2
:1000B00006C0E0FF05C0D8FF1000F76ACA0FF66E51
:1000C000000EF7220900F550120048616265726C5B
:1000D00065736D652044414C492054562041434985
:1000E0004B205456204B4150414C492053455420FD
:1000F0004143494B20534554204B4150414C4920EA
:100100004B4F4D424920534943414B4C494B200AE8
:1001100043414D41534952204D414B494E4553496E
:10012000204143494B2043414D41534952204D41C9
:100130004B494E455349204B4150414C49204F4378
:100140004147492059414B204F43414749204B41AA
:1001500050415420464952494E204143494B204684
:100160004952494E204B4150414C49200A4B4C4981
:100170004D41205349432E20542E542E412E542EAF
:100180004C2E204B4F4D4249204143494B204B4F71
:100190004D4249204B4150414C492020504552444A
:1001A000452000009D9AEA6A1C0EE96EE9069EAAA7
:1001B000FED7AECFECFF0D0EEF5CF9E1EC6A9D8A45
:1001C000C00EF2129E9A36EF00F0938481B4FED7EF
:1001D000080E006E486A008E0ED0009E0CD0D8909B
:1001E00081B4D8804832008C06D0009C002EF7D70E
:1001F00048C001F00BD00B0E00BE030E016E012EA5
:10020000FED700BEEAD700BCF0D7E9D70EEF01F069
:10021000F298EA6A1C0EE96EE906D7D701C0ECFF36
:100220000D0EEF5CFAE1EC6AF288C00EF212F29267
:1002300036EF00F0536573204B6F6D75746C61720F
:100240006920696C65204576204B6F6E74726F6C07
:1002500020557967756C616D61736920566572739D
:10026000696F6E20312E3000456C656B74726F6E55
:10027000696B204B61727420696C6520486162650E
:10028000726C65736D65204261736C616469000016
:100290004B6F6E74726F6C204B6F6D7574752E2E74
:1002A0002E3A00004F4B200D00004F4B200D000058
:1002B0004F4B200D00004F4B200D00004F4B200DE9
:1002C00000004F4B200D00004F4B200D00004F4B06
:1002D000200D00004F4B200D00004F4B200D000063
:1002E0004F4B200D00004F4B200D00004F4B200DB9
:1002F00000004F4B200D00004F4B200D00004F4BD6
:10030000200D00004F4B200D00004F4B200D000032
:100310004F4B200D00004F4B200D00004F4B200D88
:1003200000004F4B200D00004F4B200D00004F4BA5
:10033000200D00004F4B200D00004F4B200D000002
:100340004F4B200D00004F4B200D00004F4B200D58
:1003500000004F4B200D00004F4B200D00004F4B75
:10036000200D00004F4B200D00004F4B200D0000D2
:100370004F4B200D00004F4B200D00004F4B200D28
:1003800000004F4B200D00004F4B200D00004F4B45
:10039000200D00004F4B200D00004F4B200D0000A2
:1003A0004F4B200D00004B6F6D757420416C6769D9
:1003B0006C616E616D61646920212121200D200036
:1003C000080E016E00008B969496000047368B98BD
:1003D000D8B09488D8A09498948682A6FED7012E8F
:1003E000F1D700008B9694960000948800000000DE
:1003F000948682A6FED7016A000082B801808B969F
:1004000094968B9894981200010E3C6E020E3D6EED
:10041000030E3E6E040E3F6E070E406E416842684A
:10042000010E436E810E446E456A3B6A3B500408E0
:1004300030E394880000948600008B989498000024
:100440008B969496A00E476EBBDF036A3B503C0F21
:10045000E96E000E0320EA6EEFCF46F046C047F08B
:10046000AFDF036A3B50410FE96E000E0320EA6ED6
:10047000EFCF46F046C047F0A3DF94980000948683
:1004800082A6FED7000000D00000948800003B2A1E
:10049000CDD76AEF03F094880000948600008B9813
:1004A000949800008B969496A00E476E89DF43C007
:1004B00047F086DF44C047F083DF949800009486BD
:1004C00082A6FED7000000D0000094880000120031
:1004D000EA6A420EE96EEF500EE0010E016E006A0C
:1004E000002EFED7012EFBD74A0E006E002EFED73F
:1004F00000D0EF2EF2D71200240E3E6E3F6A3B5022
:100500003C5C406E010E40243F5C02E13F6A20D01B
:100510003BC03DF03F503B24010F3D5C10E23F509B
:100520003E5C3D24D8803B54416E036A3D50C5DD9E
:10053000426E41C043F0446EAEDF3D2AEBD7020E5F
:10054000416E960E426EC4DF412EFBD73F2ADAD7AA
:100550001200200E436E446E9EDF210E436E200E6D
:10056000446E99DF220E436E200E446E94DF230EFC
:10057000436E200E446E8FDF12000900F5520DE02D
:10058000F6CF3BF0F7CF3CF0F5509EA8FED7AD6E0E
:100590003BC0F6FF3CC0F7FFF0D71200939E8A8E57
:1005A000020E3B6EFA0E426E93DF3B2EFBD7939EFC
:1005B0008A9E020E3B6EFA0E426E8ADF3B2EFBD7FE
:1005C000BDEF03F03D50016A3C5C03E23CC000F02B
:1005D0000CD0006A080E3E6E3C3600363D50005C82
:1005E000D8B0006E01363E2EF7D71200080E3F6ECF
:1005F000926A896A3E6A3D503E5C18E23F500F0B9A
:10060000926A896ED8903F323F5202E1080E3F6EE7
:100610003CC040F0402A4006D8B403D0426858DFBE
:10062000FAD73BC042F054DF3E2AE5D7A6EF08F0E8
:10063000010E3F6E926A896A3E6A3D503E5C19E245
:100640003F500F0B926A896ED8903F363F50080892
:1006500002E2010E3F6E3CC040F0402A4006D8B492
:1006600003D0426835DFFAD73BC042F031DF3E2A83
:10067000E4D7A6EF08F0F86AD09E078EEA6AE96A26
:100680000C0EAF6EA60EAC6E900EAB6E93928A827D
:10069000196A0F0E1A6E1B6AC180C182C184C1968D
:1006A000C180C182C184C196C2909698C69A949A1C
:1006B00094889496010EC66E000EC76ED190CD6AD6
:1006C000CA6E000ECB6EB16AF18CF2889D8AC00EA4
:1006D000F2129AD6AD0E3B6EB80E3C6E0DDF39DFCE
:1006E0003B6A0F0E3C6E08DF34DF020E3B6EFA0EE3
:1006F000426EEEDE3B2EFBD7200E436E530E446E51
:10070000CADE210E436E440E446EC5DE220E436ED9
:10071000650E446EC0DE230E436E560E446EBBDE85
:10072000340EF66E020EF76E28DF0D0E9EA8FED771
:10073000AD6E0A0E9EA8FED7AD6E680EF66E020E66
:10074000F76E1BDF0D0E9EA8FED7AD6E0A0E9EA89B
:10075000FED7AD6E900EF66E020EF76E0EDF0D0E2A
:100760009EA8FED7AD6E0A0E9EA8FED7AD6E300EC7
:100770001C6E1D6E1E6E1F6A11D71C502A08D8A44D
:10078000A6EF08F0300E1D5C640DF3CF3BF0300E89
:100790001E5C0A0DF3503B241F24D00F3A6E2050EC
:1007A0002308D8A4A6EF08F03A50D8B48AD0010A9A
:1007B000D8B490D0030AD8B496D0070AD8B49CD045
:1007C000030AD8B4A2D0010AD8B4A8D00F0AD8B46A
:1007D000AED0010AD8B4B4D0190AD8B4BAD0010A3C
:1007E000D8B4C0D0030AD8B4C6D0050AD8B4CCD087
:1007F0000F0AD8B4D2D0060AD8B4D8D0010AD8B4D7
:10080000E4D03F0AD8B4F0D0010AD8B41DD1030A0D
:10081000D8B44ED1010AD8B477D1070AD8B4A0D140
:10082000010AD8B4ABD1030AD8B4B6D1010AD8B4FE
:10083000FAD10F0AD8B440D2010AD8B45BD2030A65
:10084000D8B476D2010AD8B491D2070AD8B4ACD2BF
:10085000010AD8B4C8D2030AD8B4E4D2010AD8B481
:1008600000D3130AD8B43BD3010AD8B478D3030A0F
:10087000D8B4EFEF07F0010AD8B400EF08F07F0A10
:10088000D8B411EF08F0010AD8B420EF08F0030A39
:10089000D8B42FEF08F0010AD8B440EF08F0070AE7
:1008A000D8B451EF08F0010AD8B462EF08F01F0A7B
:1008B000D8B473EF08F0010AD8B489EF08F09FEFBD
:1008C00008F0956A8C6AA40EF66E020EF76E55DE7D
:1008D000A6EF08F095908C80AA0EF66E020EF76EC9
:1008E0004CDEA6EF08F095908C90B00EF66E020EDE
:1008F000F76E43DEA6EF08F095928C82B60EF66E88
:10090000020EF76E3ADEA6EF08F095928C92BC0EBE
:10091000F66E020EF76E31DEA6EF08F095948C8429
:10092000C20EF66E020EF76E28DEA6EF08F0959462
:100930008C94C80EF66E020EF76E1FDEA6EF08F05E
:1009400095968C86CE0EF66E020EF76E16DEA6EF2C
:1009500008F095968C96D40EF66E020EF76E0DDEAC
:10096000A6EF08F095988C88DA0EF66E020EF76EF8
:1009700004DEA6EF08F095988C98E00EF66E020E55
:10098000F76EFBDDA6EF08F0959A8C8AE60EF66E00
:10099000020EF76EF2DDA6EF08F0959A8C9AEC0E37
:1009A000F66E020EF76EE9DDA6EF08F0959C8C8CD2
:1009B000F20EF66E020EF76EE0DD100E3B6E170EB5
:1009C0003C6E9ADDC6DDA6EF08F0959C8C9CF80E77
:1009D000F66E020EF76ED1DD180E3B6E210E3C6EE8
:1009E0008BDDB7DDA6EF08F0FE0EF66E020EF76E99
:1009F000C4DD192A200E436E500E446E4CDD210ECC
:100A0000436E200E446E47DD19C03CF00A0E3D6E69
:100A1000D9DD0050300F3B6E230E436E3BC044F0D7
:100A20003ADD19C03CF00A0E3D6ECCDD01C03CF051
:100A30000A0E3D6EC7DD0050300F3B6E220E436E36
:100A40003BC044F028DD82D3040EF66E030EF76E31
:100A500094DD1906195202E1630E196E200E436EE1
:100A6000500E446E18DD210E436E200E446E13DDD1
:100A700019C03CF00A0E3D6EA5DD0050300F3B6EF4
:100A8000230E436E3BC044F006DD19C03CF00A0E55
:100A90003D6E98DD01C03CF00A0E3D6E93DD0050C6
:100AA000300F3B6E220E436E3BC044F0F4DC4ED35D
:100AB0000A0EF66E030EF76E60DD1B2A1B5202E172
:100AC000010E1B6E1B50090802E2090E1B6E200E60
:100AD000436E530E446EDFDC210E436E450E446EB2
:100AE000DADC220E436E530E446ED5DC1BC03CF0A4
:100AF0000A0E3D6E67DD0050300F3B6E230E436ED5
:100B00003BC044F0C8DC22D3100EF66E030EF76E25
:100B100034DD1B061B5202E1010E1B6E1B5009083F
:100B200002E2090E1B6E200E436E530E446EB3DCC0
:100B3000210E436E450E446EAEDC220E436E530E04
:100B4000446EA9DC1BC03CF00A0E3D6E3BDD00503C
:100B5000300F3B6E230E436E3BC044F09CDCF6D25C
:100B6000959E8C8E160EF66E030EF76E06DD220E27
:100B70003B6E2A0E3C6EC0DCECDCE8D2959E8C9E6F
:100B80001C0EF66E030EF76EF8DC2B0E3B6E350E68
:100B90003C6EB2DCDEDCDAD2220EF66E030EF76EAD
:100BA000ECDC1B2A1B5202E1010E1B6E1B500908D4
:100BB00002E2090E1B6E200E436E530E446E6BDC78
:100BC000210E436E450E446E66DC220E436E540EBB
:100BD000446E61DC230E436E200E446E5CDC040E1A
:100BE0003B6EFA0E426E74DC3B2EFBD7200E436E3A
:100BF000530E446E50DC210E436E450E446E4BDCAA
:100C0000220E436E530E446E46DC1BC03CF00A0EAF
:100C10003D6ED8DC0050300F3B6E230E436E3BC060
:100C200044F039DC93D2280EF66E030EF76EA5DC85
:100C30001B061B5202E1010E1B6E1B50090802E24B
:100C4000090E1B6E200E436E530E446E24DC210EE3
:100C5000436E450E446E1FDC220E436E540E446EEE
:100C60001ADC230E436E200E446E15DC040E3B6E20
:100C7000FA0E426E2DDC3B2EFBD7200E436E530E38
:100C8000446E09DC210E436E450E446E04DC220ED8
:100C9000436E530E446E4BEC02F01BC03CF00A0E48
:100CA0003D6E90DC0050300F3B6E230E436E3BC018
:100CB00044F04BEC02F04AD22E0EF66E030EF76EA5
:100CC0005CDC200E436E540E446E4BEC02F0210EA1
:100CD000436E520E446E4BEC02F0220E436E540EE5
:100CE000446E4BEC02F0230E436E310E446E4BEC1F
:100CF00002F02CD2340EF66E030EF76E3EDC200EA0
:100D0000436E540E446E4BEC02F0210E436E520EB5
:100D1000446E4BEC02F0220E436E540E446E4BECCC
:100D200002F0230E436E320E446E4BEC02F00ED2F4
:100D30003A0EF66E030EF76E20DC200E436E4E0E5A
:100D4000446E4BEC02F0210E436E540E446E4BEC9D
:100D500002F0220E436E560E446E4BEC02F0230E50
:100D6000436E200E446E4BEC02F0F0D1400EF66E56
:100D7000030EF76E02DC200E436E410E446E4BEC08
:100D800002F0210E436E540E446E4BEC02F0220E24
:100D9000436E560E446E4BEC02F0230E436E200E53
:100DA000446E4BEC02F0D2D1460EF66E030EF76E97
:100DB000BDEC02F0200E436E4B0E446E4BEC02F085
:100DC000210E436E4E0E446E4BEC02F0220E436E2B
:100DD0004C0E446E4BEC02F0230E436E440E446EF8
:100DE0004BEC02F0B3D14C0EF66E030EF76EBDEC79
:100DF00002F0200E436E530E446E4BEC02F0210EB7
:100E0000436E540E446E4BEC02F0220E436E410EC4
:100E1000446E4BEC02F0230E436E520E446E4BECCC
:100E200002F094D1520EF66E030EF76EBDEC02F096
:100E3000200E436E530E446E4BEC02F0210E436EB7
:100E4000540E446E4BEC02F0220E436E560E446E6E
:100E50004BEC02F0230E436E200E446E4BEC02F07E
:100E600075D1580EF66E030EF76EBDEC02F0200E33
:100E7000436E4B0E446E4BEC02F0210E436E410E5E
:100E8000446E4BEC02F0220E436E4E0E446E4BEC61
:100E900002F0230E436E4C0E446E4BEC02F0040E37
:100EA0003B6EFA0E426E68EC02F03B2EFAD7200E33
:100EB000436E446E4BEC02F0210E436E320E446ED4
:100EC0004BEC02F0220E436E360E446E4BEC02F0F9
:100ED000230E436E200E446E4BEC02F037D15E0EB3
:100EE000F66E030EF76EBDEC02F01A2A360E3B6E5C
:100EF000440E3C6E7CEC02F0A9EC02F01AC03CF00F
:100F00000A0E3D6EE2EC02F001C03CF00A0E3D6EAE
:100F1000E2EC02F00050300F3B6E200E436E3BC0FF
:100F200044F04BEC02F01AC03CF00A0E3D6EE2ECCD
:100F300002F00050300F3B6E210E436E3BC044F078
:100F40004BEC02F0220E436E200E446E4BEC02F08E
:100F5000230E436E430E446E4BEC02F0F7D0640E4A
:100F6000F66E030EF76EBDEC02F01A06360E3B6EFF
:100F7000440E3C6E7CEC02F0A9EC02F01AC03CF08E
:100F80000A0E3D6EE2EC02F001C03CF00A0E3D6E2E
:100F9000E2EC02F00050300F3B6E200E436E3BC07F
:100FA00044F04BEC02F01AC03CF00A0E3D6EE2EC4D
:100FB00002F00050300F3B6E210E436E3BC044F0F8
:100FC0004BEC02F0220E436E200E446E4BEC02F00E
:100FD000230E436E430E446E4BEC02F0B7D0969254
:100FE0008D826A0EF66E030EF76EBDEC02F0460EB1
:100FF0003B6E5C0E3C6E7CEC02F0A9EC02F0A6D0DD
:1010000096928D92700EF66E030EF76EBDEC02F0A6
:101010005C0E3B6E730E3C6E7CEC02F0A9EC02F0B1
:1010200095D0760EF66E030EF76EBDEC02F0740EE0
:101030003B6E7E0E3C6E7CEC02F0A9EC02F086D09A
:101040007C0EF66E030EF76EBDEC02F07E0E3B6E6C
:10105000890E3C6E7CEC02F0A9EC02F077D09694FD
:101060008D84820EF66E030EF76EBDEC02F08A0ED2
:101070003B6E940E3C6E7CEC02F0A9EC02F066D064
:1010800096948D94880EF66E030EF76EBDEC02F00A
:10109000950E3B6EA10E3C6E7CEC02F0A9EC02F0CA
:1010A00055D096908D808E0EF66E030EF76EBDECC9
:1010B00002F0B90E3B6EC30E3C6E7CEC02F0A9EC64
:1010C00002F044D096908D90940EF66E030EF76E5B
:1010D000BDEC02F0C40E3B6ED20E3C6E7CEC02F016
:1010E000A9EC02F033D09A0EF66E030EF76EBDEC4B
:1010F00002F0D20E3B6ED80E3C6E7CEC02F0A9ECF6
:1011000002F03C6A230E3B6E640E3D6EF6EF02F079
:101110001DD0A00EF66E030EF76EBDEC02F0D20EDF
:101120003B6ED80E3C6E7CEC02F0A9EC02F03C6AFF
:10113000230E3B6E640E3D6E18EF03F007D0A60E33
:10114000F66E030EF76EBDEC02F000D0B7EF03F0C1
:0211500003009A
:020000040030CA
:0E00000000210E0E000181000FC00FE00F4026
:00000001FF
;PIC18F452
;CRC=F97C  CREATED="14-May-14 10:24"
